{
  "_format": "hh-sol-artifact-1",
  "contractName": "Game",
  "sourceName": "contracts/mocks/Game.sol",
  "abi": [
    {
      "anonymous": false,
      "inputs": [
        {
          "indexed": true,
          "internalType": "uint256",
          "name": "gameId",
          "type": "uint256"
        },
        {
          "indexed": false,
          "internalType": "enum Game.GameStatus",
          "name": "status",
          "type": "uint8"
        }
      ],
      "name": "GameResult",
      "type": "event"
    },
    {
      "inputs": [],
      "name": "createGame",
      "outputs": [],
      "stateMutability": "nonpayable",
      "type": "function"
    },
    {
      "inputs": [
        {
          "internalType": "uint256",
          "name": "gameId",
          "type": "uint256"
        },
        {
          "internalType": "bool",
          "name": "_winner",
          "type": "bool"
        }
      ],
      "name": "decideWinner",
      "outputs": [],
      "stateMutability": "nonpayable",
      "type": "function"
    },
    {
      "inputs": [],
      "name": "gameCount",
      "outputs": [
        {
          "internalType": "uint256",
          "name": "",
          "type": "uint256"
        }
      ],
      "stateMutability": "view",
      "type": "function"
    },
    {
      "inputs": [
        {
          "internalType": "uint256",
          "name": "",
          "type": "uint256"
        }
      ],
      "name": "games",
      "outputs": [
        {
          "internalType": "uint256",
          "name": "ID",
          "type": "uint256"
        },
        {
          "internalType": "enum Game.GameStatus",
          "name": "status",
          "type": "uint8"
        }
      ],
      "stateMutability": "view",
      "type": "function"
    },
    {
      "inputs": [
        {
          "internalType": "uint256",
          "name": "gameId",
          "type": "uint256"
        }
      ],
      "name": "getGameResult",
      "outputs": [
        {
          "internalType": "enum Game.GameStatus",
          "name": "",
          "type": "uint8"
        }
      ],
      "stateMutability": "view",
      "type": "function"
    }
  ],
  "bytecode": "0x608060405234801561001057600080fd5b50610752806100206000396000f3fe608060405234801561001057600080fd5b50600436106100575760003560e01c806310a280661461005c578063117a5b90146100785780634d1975b4146100a95780637255d729146100c7578063ed2df26d146100d1575b600080fd5b61007660048036038101906100719190610469565b610101565b005b610092600480360381019061008d91906104a9565b6102be565b6040516100a092919061055c565b60405180910390f35b6100b16102ef565b6040516100be9190610585565b60405180910390f35b6100cf6102f5565b005b6100eb60048036038101906100e691906104a9565b610386565b6040516100f891906105a0565b60405180910390f35b6000548210610145576040517f08c379a000000000000000000000000000000000000000000000000000000000815260040161013c90610618565b60405180910390fd5b60006002811115610159576101586104e5565b5b6001600084815260200190815260200160002060010160009054906101000a900460ff16600281111561018f5761018e6104e5565b5b146101cf576040517f08c379a00000000000000000000000000000000000000000000000000000000081526004016101c690610684565b60405180910390fd5b60011515811515141561021f57600180600084815260200190815260200160002060010160006101000a81548160ff02191690836002811115610215576102146104e5565b5b021790555061025f565b60026001600084815260200190815260200160002060010160006101000a81548160ff02191690836002811115610259576102586104e5565b5b02179055505b817f36b2d7f009047b0bafdd214517cde657f4dc1bc0a293ea0e7ccc0942a7019ee76001600085815260200190815260200160002060010160009054906101000a900460ff166040516102b291906105a0565b60405180910390a25050565b60016020528060005260406000206000915090508060000154908060010160009054906101000a900460ff16905082565b60005481565b604051806040016040528060005481526020016000600281111561031c5761031b6104e5565b5b81525060016000806000815480929190610335906106d3565b9190505581526020019081526020016000206000820151816000015560208201518160010160006101000a81548160ff0219169083600281111561037c5761037b6104e5565b5b0217905550905050565b6000805482106103cb576040517f08c379a00000000000000000000000000000000000000000000000000000000081526004016103c290610618565b60405180910390fd5b6001600083815260200190815260200160002060010160009054906101000a900460ff169050919050565b600080fd5b6000819050919050565b61040e816103fb565b811461041957600080fd5b50565b60008135905061042b81610405565b92915050565b60008115159050919050565b61044681610431565b811461045157600080fd5b50565b6000813590506104638161043d565b92915050565b600080604083850312156104805761047f6103f6565b5b600061048e8582860161041c565b925050602061049f85828601610454565b9150509250929050565b6000602082840312156104bf576104be6103f6565b5b60006104cd8482850161041c565b91505092915050565b6104df816103fb565b82525050565b7f4e487b7100000000000000000000000000000000000000000000000000000000600052602160045260246000fd5b60038110610525576105246104e5565b5b50565b600081905061053682610514565b919050565b600061054682610528565b9050919050565b6105568161053b565b82525050565b600060408201905061057160008301856104d6565b61057e602083018461054d565b9392505050565b600060208201905061059a60008301846104d6565b92915050565b60006020820190506105b5600083018461054d565b92915050565b600082825260208201905092915050565b7f47616d65206e6f7420666f756e64000000000000000000000000000000000000600082015250565b6000610602600e836105bb565b915061060d826105cc565b602082019050919050565b60006020820190508181036000830152610631816105f5565b9050919050565b7f47616d6520616c72656164792064656369646564000000000000000000000000600082015250565b600061066e6014836105bb565b915061067982610638565b602082019050919050565b6000602082019050818103600083015261069d81610661565b9050919050565b7f4e487b7100000000000000000000000000000000000000000000000000000000600052601160045260246000fd5b60006106de826103fb565b91507fffffffffffffffffffffffffffffffffffffffffffffffffffffffffffffffff821415610711576107106106a4565b5b60018201905091905056fea264697066735822122048c3be466ac80499b0867ae651eab3157eafd181559ff544669f1ecbd62f17fc64736f6c63430008090033",
  "linkReferences": {},
  "deployedLinkReferences": {}
}