{
  "_format": "hh-sol-artifact-1",
  "contractName": "OdinsOddsFactory",
  "sourceName": "contracts/OdinsOddsFactory.sol",
  "abi": [
    {
      "inputs": [],
      "stateMutability": "nonpayable",
      "type": "constructor"
    },
    {
      "anonymous": false,
      "inputs": [
        {
          "indexed": true,
          "internalType": "uint256",
          "name": "wagerId",
          "type": "uint256"
        },
        {
          "indexed": true,
          "internalType": "address",
          "name": "owner",
          "type": "address"
        },
        {
          "indexed": false,
          "internalType": "address",
          "name": "gameContract",
          "type": "address"
        },
        {
          "indexed": false,
          "internalType": "uint256",
          "name": "gameId",
          "type": "uint256"
        },
        {
          "indexed": false,
          "internalType": "uint256",
          "name": "expiry",
          "type": "uint256"
        },
        {
          "indexed": false,
          "internalType": "uint256",
          "name": "betChoices",
          "type": "uint256"
        }
      ],
      "name": "WagerCreated",
      "type": "event"
    },
    {
      "inputs": [
        {
          "internalType": "address",
          "name": "_gameContract",
          "type": "address"
        },
        {
          "internalType": "uint256",
          "name": "_gameID",
          "type": "uint256"
        },
        {
          "internalType": "uint256",
          "name": "_expiry",
          "type": "uint256"
        },
        {
          "internalType": "uint256",
          "name": "_betChoices",
          "type": "uint256"
        }
      ],
      "name": "createWager",
      "outputs": [],
      "stateMutability": "nonpayable",
      "type": "function"
    },
    {
      "inputs": [
        {
          "internalType": "uint256",
          "name": "_wagerID",
          "type": "uint256"
        }
      ],
      "name": "getWager",
      "outputs": [
        {
          "internalType": "contract Wager",
          "name": "",
          "type": "address"
        }
      ],
      "stateMutability": "view",
      "type": "function"
    },
    {
      "inputs": [],
      "name": "nextWagerId",
      "outputs": [
        {
          "internalType": "uint256",
          "name": "",
          "type": "uint256"
        }
      ],
      "stateMutability": "view",
      "type": "function"
    },
    {
      "inputs": [],
      "name": "odinsOwner",
      "outputs": [
        {
          "internalType": "address",
          "name": "",
          "type": "address"
        }
      ],
      "stateMutability": "view",
      "type": "function"
    },
    {
      "inputs": [
        {
          "internalType": "uint256",
          "name": "",
          "type": "uint256"
        }
      ],
      "name": "wagersMap",
      "outputs": [
        {
          "internalType": "contract Wager",
          "name": "",
          "type": "address"
        }
      ],
      "stateMutability": "view",
      "type": "function"
    }
  ],
  "bytecode": "0x608060405234801561001057600080fd5b50336000806101000a81548173ffffffffffffffffffffffffffffffffffffffff021916908373ffffffffffffffffffffffffffffffffffffffff1602179055506126a5806100606000396000f3fe60806040523480156200001157600080fd5b50600436106200005e5760003560e01c80637a2756f214620000635780637dbb5cef14620000995780638d78ccbb14620000bb57806394c3059614620000f1578063e7182e121462000111575b600080fd5b6200008160048036038101906200007b919062000332565b62000133565b604051620000909190620003ef565b60405180910390f35b620000a362000170565b604051620000b2919062000431565b60405180910390f35b620000d96004803603810190620000d3919062000332565b62000194565b604051620000e89190620003ef565b60405180910390f35b6200010f60048036038101906200010991906200047f565b620001c7565b005b6200011b620002de565b6040516200012a919062000502565b60405180910390f35b60006002600083815260200190815260200160002060009054906101000a900473ffffffffffffffffffffffffffffffffffffffff169050919050565b60008054906101000a900473ffffffffffffffffffffffffffffffffffffffff1681565b60026020528060005260406000206000915054906101000a900473ffffffffffffffffffffffffffffffffffffffff1681565b60008484600154858533604051620001df90620002e4565b620001f09695949392919062000544565b604051809103906000f0801580156200020d573d6000803e3d6000fd5b5090508060026000600154815260200190815260200160002060006101000a81548173ffffffffffffffffffffffffffffffffffffffff021916908373ffffffffffffffffffffffffffffffffffffffff160217905550600160008154809291906200027990620005e0565b91905055503373ffffffffffffffffffffffffffffffffffffffff166001547f0b9a7c5fe1c88923c61966a56aeaa776693a3dc8b0d12d8418cbe0e18ad4404287878787604051620002cf94939291906200062e565b60405180910390a35050505050565b60015481565b611ff4806200067c83390190565b600080fd5b6000819050919050565b6200030c81620002f7565b81146200031857600080fd5b50565b6000813590506200032c8162000301565b92915050565b6000602082840312156200034b576200034a620002f2565b5b60006200035b848285016200031b565b91505092915050565b600073ffffffffffffffffffffffffffffffffffffffff82169050919050565b6000819050919050565b6000620003af620003a9620003a38462000364565b62000384565b62000364565b9050919050565b6000620003c3826200038e565b9050919050565b6000620003d782620003b6565b9050919050565b620003e981620003ca565b82525050565b6000602082019050620004066000830184620003de565b92915050565b6000620004198262000364565b9050919050565b6200042b816200040c565b82525050565b600060208201905062000448600083018462000420565b92915050565b62000459816200040c565b81146200046557600080fd5b50565b60008135905062000479816200044e565b92915050565b600080600080608085870312156200049c576200049b620002f2565b5b6000620004ac8782880162000468565b9450506020620004bf878288016200031b565b9350506040620004d2878288016200031b565b9250506060620004e5878288016200031b565b91505092959194509250565b620004fc81620002f7565b82525050565b6000602082019050620005196000830184620004f1565b92915050565b60006200052c8262000364565b9050919050565b6200053e816200051f565b82525050565b600060c0820190506200055b600083018962000420565b6200056a6020830188620004f1565b620005796040830187620004f1565b620005886060830186620004f1565b620005976080830185620004f1565b620005a660a083018462000533565b979650505050505050565b7f4e487b7100000000000000000000000000000000000000000000000000000000600052601160045260246000fd5b6000620005ed82620002f7565b91507fffffffffffffffffffffffffffffffffffffffffffffffffffffffffffffffff821415620006235762000622620005b1565b5b600182019050919050565b600060808201905062000645600083018762000420565b620006546020830186620004f1565b620006636040830185620004f1565b620006726060830184620004f1565b9594505050505056fe60806040523480156200001157600080fd5b5060405162001ff438038062001ff4833981810160405281019062000037919062000213565b856000806101000a81548173ffffffffffffffffffffffffffffffffffffffff021916908373ffffffffffffffffffffffffffffffffffffffff160217905550846001819055508360028190555042600381905550826004819055508160068190555080600760006101000a81548173ffffffffffffffffffffffffffffffffffffffff021916908373ffffffffffffffffffffffffffffffffffffffff1602179055506000600860146101000a81548160ff02191690836004811115620001045762000103620002af565b5b021790555042836200011791906200030d565b60058190555050505050505062000348565b600080fd5b600073ffffffffffffffffffffffffffffffffffffffff82169050919050565b60006200015b826200012e565b9050919050565b6200016d816200014e565b81146200017957600080fd5b50565b6000815190506200018d8162000162565b92915050565b6000819050919050565b620001a88162000193565b8114620001b457600080fd5b50565b600081519050620001c8816200019d565b92915050565b6000620001db826200012e565b9050919050565b620001ed81620001ce565b8114620001f957600080fd5b50565b6000815190506200020d81620001e2565b92915050565b60008060008060008060c0878903121562000233576200023262000129565b5b60006200024389828a016200017c565b96505060206200025689828a01620001b7565b95505060406200026989828a01620001b7565b94505060606200027c89828a01620001b7565b93505060806200028f89828a01620001b7565b92505060a0620002a289828a01620001fc565b9150509295509295509295565b7f4e487b7100000000000000000000000000000000000000000000000000000000600052602160045260246000fd5b7f4e487b7100000000000000000000000000000000000000000000000000000000600052601160045260246000fd5b60006200031a8262000193565b9150620003278362000193565b9250828210156200033d576200033c620002de565b5b828203905092915050565b611c9c80620003586000396000f3fe6080604052600436106100fe5760003560e01c80637152f80011610095578063c7dd4b4f11610064578063c7dd4b4f1461031f578063cc42e83a1461034a578063e184c9be14610361578063ea3a14991461038c578063fbeac855146103c9576100fe565b80637152f800146102735780638c9b48c11461029e578063b237c1bd146102c9578063b3cea217146102f4576100fe565b80631faec182116100d15780631faec182146101b557806325116fbf146101f25780636404cc791461021d57806369ec0bd514610248576100fe565b80630ac062411461010357806310fe7c4814610143578063120dcd311461015f57806316bff1491461018a575b600080fd5b34801561010f57600080fd5b5061012a60048036038101906101259190611302565b610406565b60405161013a9493929190611409565b60405180910390f35b61015d6004803603810190610158919061144e565b610480565b005b34801561016b57600080fd5b506101746106a7565b604051610181919061147b565b60405180910390f35b34801561019657600080fd5b5061019f6106be565b6040516101ac9190611496565b60405180910390f35b3480156101c157600080fd5b506101dc60048036038101906101d79190611302565b6106c4565b6040516101e99190611533565b60405180910390f35b3480156101fe57600080fd5b506102076107db565b6040516102149190611496565b60405180910390f35b34801561022957600080fd5b506102326107e1565b60405161023f9190611569565b60405180910390f35b34801561025457600080fd5b5061025d6107ee565b60405161026a9190611584565b60405180910390f35b34801561027f57600080fd5b50610288610814565b6040516102959190611638565b60405180910390f35b3480156102aa57600080fd5b506102b36108a2565b6040516102c09190611496565b60405180910390f35b3480156102d557600080fd5b506102de6108ac565b6040516102eb9190611496565b60405180910390f35b34801561030057600080fd5b506103096108b2565b6040516103169190611496565b60405180910390f35b34801561032b57600080fd5b506103346108b8565b6040516103419190611496565b60405180910390f35b34801561035657600080fd5b5061035f6108be565b005b34801561036d57600080fd5b506103766109d4565b6040516103839190611496565b60405180910390f35b34801561039857600080fd5b506103b360048036038101906103ae9190611698565b6109da565b6040516103c09190611496565b60405180910390f35b3480156103d557600080fd5b506103f060048036038101906103eb919061144e565b6109f2565b6040516103fd9190611638565b60405180910390f35b600a602052816000526040600020818154811061042257600080fd5b9060005260206000209060040201600091509150508060000160009054906101000a900473ffffffffffffffffffffffffffffffffffffffff16908060010154908060020154908060030160009054906101000a900460ff16905084565b600181148061048f5750600281145b6104ce576040517f08c379a00000000000000000000000000000000000000000000000000000000081526004016104c590611737565b60405180910390fd5b6104d6610c71565b60006104e06106a7565b90506004808111156104f5576104f4611392565b5b81600481111561050857610507611392565b5b1415610549576040517f08c379a0000000000000000000000000000000000000000000000000000000008152600401610540906117a3565b60405180910390fd5b600060405180608001604052803373ffffffffffffffffffffffffffffffffffffffff168152602001848152602001348152602001600860149054906101000a900460ff1660048111156105a05761059f611392565b5b8152509050600a6000600860149054906101000a900460ff1660048111156105cb576105ca611392565b5b60048111156105dd576105dc611392565b5b815260200190815260200160002081908060018154018082558091505060019003906000526020600020906004020160009091909190915060008201518160000160006101000a81548173ffffffffffffffffffffffffffffffffffffffff021916908373ffffffffffffffffffffffffffffffffffffffff160217905550602082015181600101556040820151816002015560608201518160030160006101000a81548160ff0219169083600481111561069b5761069a611392565b5b02179055505050505050565b6000600860149054906101000a900460ff16905090565b60055481565b6106cc611252565b600a60008460048111156106e3576106e2611392565b5b60048111156106f5576106f4611392565b5b81526020019081526020016000208281548110610715576107146117c3565b5b90600052602060002090600402016040518060800160405290816000820160009054906101000a900473ffffffffffffffffffffffffffffffffffffffff1673ffffffffffffffffffffffffffffffffffffffff1673ffffffffffffffffffffffffffffffffffffffff16815260200160018201548152602001600282015481526020016003820160009054906101000a900460ff1660048111156107bd576107bc611392565b5b60048111156107cf576107ce611392565b5b81525050905092915050565b60035481565b6000600454421015905090565b600760009054906101000a900473ffffffffffffffffffffffffffffffffffffffff1681565b6009805461082190611821565b80601f016020809104026020016040519081016040528092919081815260200182805461084d90611821565b801561089a5780601f1061086f5761010080835404028352916020019161089a565b820191906000526020600020905b81548152906001019060200180831161087d57829003601f168201915b505050505081565b6000600254905090565b60065481565b60025481565b60015481565b6000600b60003373ffffffffffffffffffffffffffffffffffffffff1673ffffffffffffffffffffffffffffffffffffffff16815260200190815260200160002054905060008111610945576040517f08c379a000000000000000000000000000000000000000000000000000000000815260040161093c906118c5565b60405180910390fd5b6000600b60003373ffffffffffffffffffffffffffffffffffffffff1673ffffffffffffffffffffffffffffffffffffffff168152602001908152602001600020819055503373ffffffffffffffffffffffffffffffffffffffff166108fc829081150290604051600060405180830381858888f193505050501580156109d0573d6000803e3d6000fd5b5050565b60045481565b600b6020528060005260406000206000915090505481565b606060008060009054906101000a900473ffffffffffffffffffffffffffffffffffffffff16905060008173ffffffffffffffffffffffffffffffffffffffff1663ed2df26d856040518263ffffffff1660e01b8152600401610a559190611496565b60206040518083038186803b158015610a6d57600080fd5b505afa158015610a81573d6000803e3d6000fd5b505050506040513d601f19601f82011682018060405250810190610aa5919061190a565b905060016002811115610abb57610aba611392565b5b816002811115610ace57610acd611392565b5b1415610b5257610ade6001610dc3565b7f81fb8cf16a162d64a99ed61aee5820f2c7f2e02179193d0fb88e683599c12567604051610b0b90611983565b60405180910390a16040518060400160405280600881526020017f5265642077696e7300000000000000000000000000000000000000000000000081525092505050610c6c565b600280811115610b6557610b64611392565b5b816002811115610b7857610b77611392565b5b1415610bfc57610b886002610dc3565b7f81fb8cf16a162d64a99ed61aee5820f2c7f2e02179193d0fb88e683599c12567604051610bb5906119ef565b60405180910390a16040518060400160405280600981526020017f426c75652077696e73000000000000000000000000000000000000000000000081525092505050610c6c565b7f81fb8cf16a162d64a99ed61aee5820f2c7f2e02179193d0fb88e683599c12567604051610c2990611a5b565b60405180910390a16040518060400160405280600d81526020017f4e6f20726573756c742079657400000000000000000000000000000000000000815250925050505b919050565b600060035442610c819190611aaa565b905060006004600554610c949190611b0d565b9050600454421115610cd0576004600860146101000a81548160ff02191690836004811115610cc657610cc5611392565b5b0217905550610dbf565b80821015610d08576000600860146101000a81548160ff02191690836004811115610cfe57610cfd611392565b5b0217905550610dbe565b806002610d159190611b3e565b821015610d4c576001600860146101000a81548160ff02191690836004811115610d4257610d41611392565b5b0217905550610dbd565b806003610d599190611b3e565b821015610d90576002600860146101000a81548160ff02191690836004811115610d8657610d85611392565b5b0217905550610dbc565b6003600860146101000a81548160ff02191690836004811115610db657610db5611392565b5b02179055505b5b5b5b5050565b60004790506000600467ffffffffffffffff811115610de557610de4611b98565b5b604051908082528060200260200182016040528015610e135781602001602082028036833780820191505090505b5090506000600467ffffffffffffffff811115610e3357610e32611b98565b5b604051908082528060200260200182016040528015610e615781602001602082028036833780820191505090505b5090506000805b6004811015610f9d576000600a6000836004811115610e8a57610e89611392565b5b6004811115610e9c57610e9b611392565b5b6004811115610eae57610ead611392565b5b8152602001908152602001600020905060005b8180549050811015610f605787828281548110610ee157610ee06117c3565b5b9060005260206000209060040201600101541415610f4d57818181548110610f0c57610f0b6117c3565b5b906000526020600020906004020160020154868481518110610f3157610f306117c3565b5b60200260200101818151610f459190611bc7565b915081815250505b8080610f5890611c1d565b915050610ec1565b50848281518110610f7457610f736117c3565b5b602002602001015183610f879190611bc7565b9250508080610f9590611c1d565b915050610e68565b5060005b600481101561103d5760008211156110085781848281518110610fc757610fc66117c3565b5b602002602001015186610fda9190611b3e565b610fe49190611b0d565b838281518110610ff757610ff66117c3565b5b60200260200101818152505061102a565b600083828151811061101d5761101c6117c3565b5b6020026020010181815250505b808061103590611c1d565b915050610fa1565b5060005b600481101561124a576000600a600083600481111561106357611062611392565b5b600481111561107557611074611392565b5b600481111561108757611086611392565b5b8152602001908152602001600020905060005b818054905081101561123557878282815481106110ba576110b96117c3565b5b90600052602060002090600402016001015414156112225760008584815181106110e7576110e66117c3565b5b602002602001015190506000878581518110611106576111056117c3565b5b6020026020010151111561118657868481518110611127576111266117c3565b5b6020026020010151838381548110611142576111416117c3565b5b906000526020600020906004020160020154878681518110611167576111666117c3565b5b60200260200101516111799190611b3e565b6111839190611b0d565b90505b80600b600085858154811061119e5761119d6117c3565b5b906000526020600020906004020160000160009054906101000a900473ffffffffffffffffffffffffffffffffffffffff1673ffffffffffffffffffffffffffffffffffffffff1673ffffffffffffffffffffffffffffffffffffffff16815260200190815260200160002060008282546112199190611bc7565b92505081905550505b808061122d90611c1d565b91505061109a565b5050808061124290611c1d565b915050611041565b505050505050565b6040518060800160405280600073ffffffffffffffffffffffffffffffffffffffff16815260200160008152602001600081526020016000600481111561129c5761129b611392565b5b81525090565b600080fd5b600581106112b457600080fd5b50565b6000813590506112c6816112a7565b92915050565b6000819050919050565b6112df816112cc565b81146112ea57600080fd5b50565b6000813590506112fc816112d6565b92915050565b60008060408385031215611319576113186112a2565b5b6000611327858286016112b7565b9250506020611338858286016112ed565b9150509250929050565b600073ffffffffffffffffffffffffffffffffffffffff82169050919050565b600061136d82611342565b9050919050565b61137d81611362565b82525050565b61138c816112cc565b82525050565b7f4e487b7100000000000000000000000000000000000000000000000000000000600052602160045260246000fd5b600581106113d2576113d1611392565b5b50565b60008190506113e3826113c1565b919050565b60006113f3826113d5565b9050919050565b611403816113e8565b82525050565b600060808201905061141e6000830187611374565b61142b6020830186611383565b6114386040830185611383565b61144560608301846113fa565b95945050505050565b600060208284031215611464576114636112a2565b5b6000611472848285016112ed565b91505092915050565b600060208201905061149060008301846113fa565b92915050565b60006020820190506114ab6000830184611383565b92915050565b6114ba81611362565b82525050565b6114c9816112cc565b82525050565b6114d8816113e8565b82525050565b6080820160008201516114f460008501826114b1565b50602082015161150760208501826114c0565b50604082015161151a60408501826114c0565b50606082015161152d60608501826114cf565b50505050565b600060808201905061154860008301846114de565b92915050565b60008115159050919050565b6115638161154e565b82525050565b600060208201905061157e600083018461155a565b92915050565b60006020820190506115996000830184611374565b92915050565b600081519050919050565b600082825260208201905092915050565b60005b838110156115d95780820151818401526020810190506115be565b838111156115e8576000848401525b50505050565b6000601f19601f8301169050919050565b600061160a8261159f565b61161481856115aa565b93506116248185602086016115bb565b61162d816115ee565b840191505092915050565b6000602082019050818103600083015261165281846115ff565b905092915050565b600061166582611342565b9050919050565b6116758161165a565b811461168057600080fd5b50565b6000813590506116928161166c565b92915050565b6000602082840312156116ae576116ad6112a2565b5b60006116bc84828501611683565b91505092915050565b7f496e76616c69642070726564696374696f6e2e20557365203120666f7220526560008201527f642c203220666f7220426c756500000000000000000000000000000000000000602082015250565b6000611721602d836115aa565b915061172c826116c5565b604082019050919050565b6000602082019050818103600083015261175081611714565b9050919050565b7f57616765722068617320656e6465640000000000000000000000000000000000600082015250565b600061178d600f836115aa565b915061179882611757565b602082019050919050565b600060208201905081810360008301526117bc81611780565b9050919050565b7f4e487b7100000000000000000000000000000000000000000000000000000000600052603260045260246000fd5b7f4e487b7100000000000000000000000000000000000000000000000000000000600052602260045260246000fd5b6000600282049050600182168061183957607f821691505b6020821081141561184d5761184c6117f2565b5b50919050565b7f4e6f2077696e6e696e677320617661696c61626c6520666f722077697468647260008201527f6177616c00000000000000000000000000000000000000000000000000000000602082015250565b60006118af6024836115aa565b91506118ba82611853565b604082019050919050565b600060208201905081810360008301526118de816118a2565b9050919050565b600381106118f257600080fd5b50565b600081519050611904816118e5565b92915050565b6000602082840312156119205761191f6112a2565b5b600061192e848285016118f5565b91505092915050565b7f5265642077696e73000000000000000000000000000000000000000000000000600082015250565b600061196d6008836115aa565b915061197882611937565b602082019050919050565b6000602082019050818103600083015261199c81611960565b9050919050565b7f426c75652077696e730000000000000000000000000000000000000000000000600082015250565b60006119d96009836115aa565b91506119e4826119a3565b602082019050919050565b60006020820190508181036000830152611a08816119cc565b9050919050565b7f4e6f20726573756c742079657400000000000000000000000000000000000000600082015250565b6000611a45600d836115aa565b9150611a5082611a0f565b602082019050919050565b60006020820190508181036000830152611a7481611a38565b9050919050565b7f4e487b7100000000000000000000000000000000000000000000000000000000600052601160045260246000fd5b6000611ab5826112cc565b9150611ac0836112cc565b925082821015611ad357611ad2611a7b565b5b828203905092915050565b7f4e487b7100000000000000000000000000000000000000000000000000000000600052601260045260246000fd5b6000611b18826112cc565b9150611b23836112cc565b925082611b3357611b32611ade565b5b828204905092915050565b6000611b49826112cc565b9150611b54836112cc565b9250817fffffffffffffffffffffffffffffffffffffffffffffffffffffffffffffffff0483118215151615611b8d57611b8c611a7b565b5b828202905092915050565b7f4e487b7100000000000000000000000000000000000000000000000000000000600052604160045260246000fd5b6000611bd2826112cc565b9150611bdd836112cc565b9250827fffffffffffffffffffffffffffffffffffffffffffffffffffffffffffffffff03821115611c1257611c11611a7b565b5b828201905092915050565b6000611c28826112cc565b91507fffffffffffffffffffffffffffffffffffffffffffffffffffffffffffffffff821415611c5b57611c5a611a7b565b5b60018201905091905056fea26469706673582212205a0ab883d53414402449abe0051c40deef7b95bce25b9952c311c8e92c3cdb7d64736f6c63430008090033a26469706673582212208454083c28edde0ac65a3f2e82e1f0337b96de46e600b1d220a72a4fae84080b64736f6c63430008090033",
  "linkReferences": {},
  "deployedLinkReferences": {}
}