{
  "_format": "hh-sol-artifact-1",
  "contractName": "OdinsOddsFactory",
  "sourceName": "contracts/OdinsOddsFactory.sol",
  "abi": [
    {
      "inputs": [],
      "stateMutability": "nonpayable",
      "type": "constructor"
    },
    {
      "anonymous": false,
      "inputs": [
        {
          "indexed": true,
          "internalType": "uint256",
          "name": "wagerId",
          "type": "uint256"
        },
        {
          "indexed": true,
          "internalType": "address",
          "name": "owner",
          "type": "address"
        },
        {
          "indexed": false,
          "internalType": "address",
          "name": "gameContract",
          "type": "address"
        },
        {
          "indexed": false,
          "internalType": "uint256",
          "name": "gameId",
          "type": "uint256"
        },
        {
          "indexed": false,
          "internalType": "uint256",
          "name": "expiry",
          "type": "uint256"
        },
        {
          "indexed": false,
          "internalType": "uint256",
          "name": "betChoices",
          "type": "uint256"
        }
      ],
      "name": "WagerCreated",
      "type": "event"
    },
    {
      "inputs": [
        {
          "internalType": "address",
          "name": "_gameContract",
          "type": "address"
        },
        {
          "internalType": "uint256",
          "name": "_gameID",
          "type": "uint256"
        },
        {
          "internalType": "uint256",
          "name": "_expiry",
          "type": "uint256"
        },
        {
          "internalType": "uint256",
          "name": "_betChoices",
          "type": "uint256"
        }
      ],
      "name": "createWager",
      "outputs": [],
      "stateMutability": "nonpayable",
      "type": "function"
    },
    {
      "inputs": [
        {
          "internalType": "uint256",
          "name": "_wagerID",
          "type": "uint256"
        }
      ],
      "name": "getWager",
      "outputs": [
        {
          "internalType": "contract Wager",
          "name": "",
          "type": "address"
        }
      ],
      "stateMutability": "view",
      "type": "function"
    },
    {
      "inputs": [],
      "name": "nextWagerId",
      "outputs": [
        {
          "internalType": "uint256",
          "name": "",
          "type": "uint256"
        }
      ],
      "stateMutability": "view",
      "type": "function"
    },
    {
      "inputs": [],
      "name": "odinsOwner",
      "outputs": [
        {
          "internalType": "address",
          "name": "",
          "type": "address"
        }
      ],
      "stateMutability": "view",
      "type": "function"
    },
    {
      "inputs": [
        {
          "internalType": "uint256",
          "name": "",
          "type": "uint256"
        }
      ],
      "name": "wagersMap",
      "outputs": [
        {
          "internalType": "contract Wager",
          "name": "",
          "type": "address"
        }
      ],
      "stateMutability": "view",
      "type": "function"
    }
  ],
  "bytecode": "0x608060405234801561001057600080fd5b50336000806101000a81548173ffffffffffffffffffffffffffffffffffffffff021916908373ffffffffffffffffffffffffffffffffffffffff1602179055506126e5806100606000396000f3fe60806040523480156200001157600080fd5b50600436106200005e5760003560e01c80637a2756f214620000635780637dbb5cef14620000995780638d78ccbb14620000bb57806394c3059614620000f1578063e7182e121462000111575b600080fd5b6200008160048036038101906200007b919062000332565b62000133565b604051620000909190620003ef565b60405180910390f35b620000a362000170565b604051620000b2919062000431565b60405180910390f35b620000d96004803603810190620000d3919062000332565b62000194565b604051620000e89190620003ef565b60405180910390f35b6200010f60048036038101906200010991906200047f565b620001c7565b005b6200011b620002de565b6040516200012a919062000502565b60405180910390f35b60006002600083815260200190815260200160002060009054906101000a900473ffffffffffffffffffffffffffffffffffffffff169050919050565b60008054906101000a900473ffffffffffffffffffffffffffffffffffffffff1681565b60026020528060005260406000206000915054906101000a900473ffffffffffffffffffffffffffffffffffffffff1681565b60008484600154858533604051620001df90620002e4565b620001f09695949392919062000544565b604051809103906000f0801580156200020d573d6000803e3d6000fd5b5090508060026000600154815260200190815260200160002060006101000a81548173ffffffffffffffffffffffffffffffffffffffff021916908373ffffffffffffffffffffffffffffffffffffffff160217905550600160008154809291906200027990620005e0565b91905055503373ffffffffffffffffffffffffffffffffffffffff166001547f0b9a7c5fe1c88923c61966a56aeaa776693a3dc8b0d12d8418cbe0e18ad4404287878787604051620002cf94939291906200062e565b60405180910390a35050505050565b60015481565b612034806200067c83390190565b600080fd5b6000819050919050565b6200030c81620002f7565b81146200031857600080fd5b50565b6000813590506200032c8162000301565b92915050565b6000602082840312156200034b576200034a620002f2565b5b60006200035b848285016200031b565b91505092915050565b600073ffffffffffffffffffffffffffffffffffffffff82169050919050565b6000819050919050565b6000620003af620003a9620003a38462000364565b62000384565b62000364565b9050919050565b6000620003c3826200038e565b9050919050565b6000620003d782620003b6565b9050919050565b620003e981620003ca565b82525050565b6000602082019050620004066000830184620003de565b92915050565b6000620004198262000364565b9050919050565b6200042b816200040c565b82525050565b600060208201905062000448600083018462000420565b92915050565b62000459816200040c565b81146200046557600080fd5b50565b60008135905062000479816200044e565b92915050565b600080600080608085870312156200049c576200049b620002f2565b5b6000620004ac8782880162000468565b9450506020620004bf878288016200031b565b9350506040620004d2878288016200031b565b9250506060620004e5878288016200031b565b91505092959194509250565b620004fc81620002f7565b82525050565b6000602082019050620005196000830184620004f1565b92915050565b60006200052c8262000364565b9050919050565b6200053e816200051f565b82525050565b600060c0820190506200055b600083018962000420565b6200056a6020830188620004f1565b620005796040830187620004f1565b620005886060830186620004f1565b620005976080830185620004f1565b620005a660a083018462000533565b979650505050505050565b7f4e487b7100000000000000000000000000000000000000000000000000000000600052601160045260246000fd5b6000620005ed82620002f7565b91507fffffffffffffffffffffffffffffffffffffffffffffffffffffffffffffffff821415620006235762000622620005b1565b5b600182019050919050565b600060808201905062000645600083018762000420565b620006546020830186620004f1565b620006636040830185620004f1565b620006726060830184620004f1565b9594505050505056fe60806040523480156200001157600080fd5b506040516200203438038062002034833981810160405281019062000037919062000213565b856000806101000a81548173ffffffffffffffffffffffffffffffffffffffff021916908373ffffffffffffffffffffffffffffffffffffffff160217905550846001819055508360028190555042600381905550826004819055508160068190555080600760006101000a81548173ffffffffffffffffffffffffffffffffffffffff021916908373ffffffffffffffffffffffffffffffffffffffff1602179055506000600860146101000a81548160ff02191690836004811115620001045762000103620002af565b5b021790555042836200011791906200030d565b60058190555050505050505062000348565b600080fd5b600073ffffffffffffffffffffffffffffffffffffffff82169050919050565b60006200015b826200012e565b9050919050565b6200016d816200014e565b81146200017957600080fd5b50565b6000815190506200018d8162000162565b92915050565b6000819050919050565b620001a88162000193565b8114620001b457600080fd5b50565b600081519050620001c8816200019d565b92915050565b6000620001db826200012e565b9050919050565b620001ed81620001ce565b8114620001f957600080fd5b50565b6000815190506200020d81620001e2565b92915050565b60008060008060008060c0878903121562000233576200023262000129565b5b60006200024389828a016200017c565b96505060206200025689828a01620001b7565b95505060406200026989828a01620001b7565b94505060606200027c89828a01620001b7565b93505060806200028f89828a01620001b7565b92505060a0620002a289828a01620001fc565b9150509295509295509295565b7f4e487b7100000000000000000000000000000000000000000000000000000000600052602160045260246000fd5b7f4e487b7100000000000000000000000000000000000000000000000000000000600052601160045260246000fd5b60006200031a8262000193565b9150620003278362000193565b9250828210156200033d576200033c620002de565b5b828203905092915050565b611cdc80620003586000396000f3fe6080604052600436106101095760003560e01c80638c9b48c111610095578063cc42e83a11610064578063cc42e83a14610355578063e184c9be1461036c578063ea3a149914610397578063fbeac855146103d4578063fddc3d191461041157610109565b80638c9b48c1146102a9578063b237c1bd146102d4578063b3cea217146102ff578063c7dd4b4f1461032a57610109565b80631faec182116100dc5780631faec182146101c057806325116fbf146101fd5780636404cc791461022857806369ec0bd5146102535780637152f8001461027e57610109565b80630ac062411461010e57806310fe7c481461014e578063120dcd311461016a57806316bff14914610195575b600080fd5b34801561011a57600080fd5b5061013560048036038101906101309190611342565b61043c565b6040516101459493929190611449565b60405180910390f35b6101686004803603810190610163919061148e565b6104b6565b005b34801561017657600080fd5b5061017f6106dd565b60405161018c91906114bb565b60405180910390f35b3480156101a157600080fd5b506101aa6106f4565b6040516101b791906114d6565b60405180910390f35b3480156101cc57600080fd5b506101e760048036038101906101e29190611342565b6106fa565b6040516101f49190611573565b60405180910390f35b34801561020957600080fd5b50610212610811565b60405161021f91906114d6565b60405180910390f35b34801561023457600080fd5b5061023d610817565b60405161024a91906115a9565b60405180910390f35b34801561025f57600080fd5b50610268610824565b60405161027591906115c4565b60405180910390f35b34801561028a57600080fd5b5061029361084a565b6040516102a09190611678565b60405180910390f35b3480156102b557600080fd5b506102be6108d8565b6040516102cb91906114d6565b60405180910390f35b3480156102e057600080fd5b506102e96108e2565b6040516102f691906114d6565b60405180910390f35b34801561030b57600080fd5b506103146108e8565b60405161032191906114d6565b60405180910390f35b34801561033657600080fd5b5061033f6108ee565b60405161034c91906114d6565b60405180910390f35b34801561036157600080fd5b5061036a6108f4565b005b34801561037857600080fd5b50610381610a0a565b60405161038e91906114d6565b60405180910390f35b3480156103a357600080fd5b506103be60048036038101906103b991906116d8565b610a10565b6040516103cb91906114d6565b60405180910390f35b3480156103e057600080fd5b506103fb60048036038101906103f6919061148e565b610a28565b6040516104089190611678565b60405180910390f35b34801561041d57600080fd5b50610426610ca7565b60405161043391906114d6565b60405180910390f35b600a602052816000526040600020818154811061045857600080fd5b9060005260206000209060040201600091509150508060000160009054906101000a900473ffffffffffffffffffffffffffffffffffffffff16908060010154908060020154908060030160009054906101000a900460ff16905084565b60018114806104c55750600281145b610504576040517f08c379a00000000000000000000000000000000000000000000000000000000081526004016104fb90611777565b60405180910390fd5b61050c610cb1565b60006105166106dd565b905060048081111561052b5761052a6113d2565b5b81600481111561053e5761053d6113d2565b5b141561057f576040517f08c379a0000000000000000000000000000000000000000000000000000000008152600401610576906117e3565b60405180910390fd5b600060405180608001604052803373ffffffffffffffffffffffffffffffffffffffff168152602001848152602001348152602001600860149054906101000a900460ff1660048111156105d6576105d56113d2565b5b8152509050600a6000600860149054906101000a900460ff166004811115610601576106006113d2565b5b6004811115610613576106126113d2565b5b815260200190815260200160002081908060018154018082558091505060019003906000526020600020906004020160009091909190915060008201518160000160006101000a81548173ffffffffffffffffffffffffffffffffffffffff021916908373ffffffffffffffffffffffffffffffffffffffff160217905550602082015181600101556040820151816002015560608201518160030160006101000a81548160ff021916908360048111156106d1576106d06113d2565b5b02179055505050505050565b6000600860149054906101000a900460ff16905090565b60055481565b610702611292565b600a6000846004811115610719576107186113d2565b5b600481111561072b5761072a6113d2565b5b8152602001908152602001600020828154811061074b5761074a611803565b5b90600052602060002090600402016040518060800160405290816000820160009054906101000a900473ffffffffffffffffffffffffffffffffffffffff1673ffffffffffffffffffffffffffffffffffffffff1673ffffffffffffffffffffffffffffffffffffffff16815260200160018201548152602001600282015481526020016003820160009054906101000a900460ff1660048111156107f3576107f26113d2565b5b6004811115610805576108046113d2565b5b81525050905092915050565b60035481565b6000600454421015905090565b600760009054906101000a900473ffffffffffffffffffffffffffffffffffffffff1681565b6009805461085790611861565b80601f016020809104026020016040519081016040528092919081815260200182805461088390611861565b80156108d05780601f106108a5576101008083540402835291602001916108d0565b820191906000526020600020905b8154815290600101906020018083116108b357829003601f168201915b505050505081565b6000600254905090565b60065481565b60025481565b60015481565b6000600b60003373ffffffffffffffffffffffffffffffffffffffff1673ffffffffffffffffffffffffffffffffffffffff1681526020019081526020016000205490506000811161097b576040517f08c379a000000000000000000000000000000000000000000000000000000000815260040161097290611905565b60405180910390fd5b6000600b60003373ffffffffffffffffffffffffffffffffffffffff1673ffffffffffffffffffffffffffffffffffffffff168152602001908152602001600020819055503373ffffffffffffffffffffffffffffffffffffffff166108fc829081150290604051600060405180830381858888f19350505050158015610a06573d6000803e3d6000fd5b5050565b60045481565b600b6020528060005260406000206000915090505481565b606060008060009054906101000a900473ffffffffffffffffffffffffffffffffffffffff16905060008173ffffffffffffffffffffffffffffffffffffffff1663ed2df26d856040518263ffffffff1660e01b8152600401610a8b91906114d6565b60206040518083038186803b158015610aa357600080fd5b505afa158015610ab7573d6000803e3d6000fd5b505050506040513d601f19601f82011682018060405250810190610adb919061194a565b905060016002811115610af157610af06113d2565b5b816002811115610b0457610b036113d2565b5b1415610b8857610b146001610e03565b7f81fb8cf16a162d64a99ed61aee5820f2c7f2e02179193d0fb88e683599c12567604051610b41906119c3565b60405180910390a16040518060400160405280600881526020017f5265642077696e7300000000000000000000000000000000000000000000000081525092505050610ca2565b600280811115610b9b57610b9a6113d2565b5b816002811115610bae57610bad6113d2565b5b1415610c3257610bbe6002610e03565b7f81fb8cf16a162d64a99ed61aee5820f2c7f2e02179193d0fb88e683599c12567604051610beb90611a2f565b60405180910390a16040518060400160405280600981526020017f426c75652077696e73000000000000000000000000000000000000000000000081525092505050610ca2565b7f81fb8cf16a162d64a99ed61aee5820f2c7f2e02179193d0fb88e683599c12567604051610c5f90611a9b565b60405180910390a16040518060400160405280600d81526020017f4e6f20726573756c742079657400000000000000000000000000000000000000815250925050505b919050565b6000600154905090565b600060035442610cc19190611aea565b905060006004600554610cd49190611b4d565b9050600454421115610d10576004600860146101000a81548160ff02191690836004811115610d0657610d056113d2565b5b0217905550610dff565b80821015610d48576000600860146101000a81548160ff02191690836004811115610d3e57610d3d6113d2565b5b0217905550610dfe565b806002610d559190611b7e565b821015610d8c576001600860146101000a81548160ff02191690836004811115610d8257610d816113d2565b5b0217905550610dfd565b806003610d999190611b7e565b821015610dd0576002600860146101000a81548160ff02191690836004811115610dc657610dc56113d2565b5b0217905550610dfc565b6003600860146101000a81548160ff02191690836004811115610df657610df56113d2565b5b02179055505b5b5b5b5050565b60004790506000600467ffffffffffffffff811115610e2557610e24611bd8565b5b604051908082528060200260200182016040528015610e535781602001602082028036833780820191505090505b5090506000600467ffffffffffffffff811115610e7357610e72611bd8565b5b604051908082528060200260200182016040528015610ea15781602001602082028036833780820191505090505b5090506000805b6004811015610fdd576000600a6000836004811115610eca57610ec96113d2565b5b6004811115610edc57610edb6113d2565b5b6004811115610eee57610eed6113d2565b5b8152602001908152602001600020905060005b8180549050811015610fa05787828281548110610f2157610f20611803565b5b9060005260206000209060040201600101541415610f8d57818181548110610f4c57610f4b611803565b5b906000526020600020906004020160020154868481518110610f7157610f70611803565b5b60200260200101818151610f859190611c07565b915081815250505b8080610f9890611c5d565b915050610f01565b50848281518110610fb457610fb3611803565b5b602002602001015183610fc79190611c07565b9250508080610fd590611c5d565b915050610ea8565b5060005b600481101561107d576000821115611048578184828151811061100757611006611803565b5b60200260200101518661101a9190611b7e565b6110249190611b4d565b83828151811061103757611036611803565b5b60200260200101818152505061106a565b600083828151811061105d5761105c611803565b5b6020026020010181815250505b808061107590611c5d565b915050610fe1565b5060005b600481101561128a576000600a60008360048111156110a3576110a26113d2565b5b60048111156110b5576110b46113d2565b5b60048111156110c7576110c66113d2565b5b8152602001908152602001600020905060005b818054905081101561127557878282815481106110fa576110f9611803565b5b906000526020600020906004020160010154141561126257600085848151811061112757611126611803565b5b60200260200101519050600087858151811061114657611145611803565b5b602002602001015111156111c65786848151811061116757611166611803565b5b602002602001015183838154811061118257611181611803565b5b9060005260206000209060040201600201548786815181106111a7576111a6611803565b5b60200260200101516111b99190611b7e565b6111c39190611b4d565b90505b80600b60008585815481106111de576111dd611803565b5b906000526020600020906004020160000160009054906101000a900473ffffffffffffffffffffffffffffffffffffffff1673ffffffffffffffffffffffffffffffffffffffff1673ffffffffffffffffffffffffffffffffffffffff16815260200190815260200160002060008282546112599190611c07565b92505081905550505b808061126d90611c5d565b9150506110da565b5050808061128290611c5d565b915050611081565b505050505050565b6040518060800160405280600073ffffffffffffffffffffffffffffffffffffffff1681526020016000815260200160008152602001600060048111156112dc576112db6113d2565b5b81525090565b600080fd5b600581106112f457600080fd5b50565b600081359050611306816112e7565b92915050565b6000819050919050565b61131f8161130c565b811461132a57600080fd5b50565b60008135905061133c81611316565b92915050565b60008060408385031215611359576113586112e2565b5b6000611367858286016112f7565b92505060206113788582860161132d565b9150509250929050565b600073ffffffffffffffffffffffffffffffffffffffff82169050919050565b60006113ad82611382565b9050919050565b6113bd816113a2565b82525050565b6113cc8161130c565b82525050565b7f4e487b7100000000000000000000000000000000000000000000000000000000600052602160045260246000fd5b60058110611412576114116113d2565b5b50565b600081905061142382611401565b919050565b600061143382611415565b9050919050565b61144381611428565b82525050565b600060808201905061145e60008301876113b4565b61146b60208301866113c3565b61147860408301856113c3565b611485606083018461143a565b95945050505050565b6000602082840312156114a4576114a36112e2565b5b60006114b28482850161132d565b91505092915050565b60006020820190506114d0600083018461143a565b92915050565b60006020820190506114eb60008301846113c3565b92915050565b6114fa816113a2565b82525050565b6115098161130c565b82525050565b61151881611428565b82525050565b60808201600082015161153460008501826114f1565b5060208201516115476020850182611500565b50604082015161155a6040850182611500565b50606082015161156d606085018261150f565b50505050565b6000608082019050611588600083018461151e565b92915050565b60008115159050919050565b6115a38161158e565b82525050565b60006020820190506115be600083018461159a565b92915050565b60006020820190506115d960008301846113b4565b92915050565b600081519050919050565b600082825260208201905092915050565b60005b838110156116195780820151818401526020810190506115fe565b83811115611628576000848401525b50505050565b6000601f19601f8301169050919050565b600061164a826115df565b61165481856115ea565b93506116648185602086016115fb565b61166d8161162e565b840191505092915050565b60006020820190508181036000830152611692818461163f565b905092915050565b60006116a582611382565b9050919050565b6116b58161169a565b81146116c057600080fd5b50565b6000813590506116d2816116ac565b92915050565b6000602082840312156116ee576116ed6112e2565b5b60006116fc848285016116c3565b91505092915050565b7f496e76616c69642070726564696374696f6e2e20557365203120666f7220526560008201527f642c203220666f7220426c756500000000000000000000000000000000000000602082015250565b6000611761602d836115ea565b915061176c82611705565b604082019050919050565b6000602082019050818103600083015261179081611754565b9050919050565b7f57616765722068617320656e6465640000000000000000000000000000000000600082015250565b60006117cd600f836115ea565b91506117d882611797565b602082019050919050565b600060208201905081810360008301526117fc816117c0565b9050919050565b7f4e487b7100000000000000000000000000000000000000000000000000000000600052603260045260246000fd5b7f4e487b7100000000000000000000000000000000000000000000000000000000600052602260045260246000fd5b6000600282049050600182168061187957607f821691505b6020821081141561188d5761188c611832565b5b50919050565b7f4e6f2077696e6e696e677320617661696c61626c6520666f722077697468647260008201527f6177616c00000000000000000000000000000000000000000000000000000000602082015250565b60006118ef6024836115ea565b91506118fa82611893565b604082019050919050565b6000602082019050818103600083015261191e816118e2565b9050919050565b6003811061193257600080fd5b50565b60008151905061194481611925565b92915050565b6000602082840312156119605761195f6112e2565b5b600061196e84828501611935565b91505092915050565b7f5265642077696e73000000000000000000000000000000000000000000000000600082015250565b60006119ad6008836115ea565b91506119b882611977565b602082019050919050565b600060208201905081810360008301526119dc816119a0565b9050919050565b7f426c75652077696e730000000000000000000000000000000000000000000000600082015250565b6000611a196009836115ea565b9150611a24826119e3565b602082019050919050565b60006020820190508181036000830152611a4881611a0c565b9050919050565b7f4e6f20726573756c742079657400000000000000000000000000000000000000600082015250565b6000611a85600d836115ea565b9150611a9082611a4f565b602082019050919050565b60006020820190508181036000830152611ab481611a78565b9050919050565b7f4e487b7100000000000000000000000000000000000000000000000000000000600052601160045260246000fd5b6000611af58261130c565b9150611b008361130c565b925082821015611b1357611b12611abb565b5b828203905092915050565b7f4e487b7100000000000000000000000000000000000000000000000000000000600052601260045260246000fd5b6000611b588261130c565b9150611b638361130c565b925082611b7357611b72611b1e565b5b828204905092915050565b6000611b898261130c565b9150611b948361130c565b9250817fffffffffffffffffffffffffffffffffffffffffffffffffffffffffffffffff0483118215151615611bcd57611bcc611abb565b5b828202905092915050565b7f4e487b7100000000000000000000000000000000000000000000000000000000600052604160045260246000fd5b6000611c128261130c565b9150611c1d8361130c565b9250827fffffffffffffffffffffffffffffffffffffffffffffffffffffffffffffffff03821115611c5257611c51611abb565b5b828201905092915050565b6000611c688261130c565b91507fffffffffffffffffffffffffffffffffffffffffffffffffffffffffffffffff821415611c9b57611c9a611abb565b5b60018201905091905056fea2646970667358221220a66a9211417b9e440842a0765b9a04fe4f9fd80214fd37a6998c1663aeae411064736f6c63430008090033a2646970667358221220a247dd06a75e24a04474d65f316acde096b0eecfe2aa2124a5dca826bf58d63a64736f6c63430008090033",
  "linkReferences": {},
  "deployedLinkReferences": {}
}