{
  "_format": "hh-sol-artifact-1",
  "contractName": "Wager",
  "sourceName": "contracts/OdinsOddsFactory.sol",
  "abi": [
    {
      "inputs": [
        {
          "internalType": "address",
          "name": "_gameContract",
          "type": "address"
        },
        {
          "internalType": "uint256",
          "name": "_gameId",
          "type": "uint256"
        },
        {
          "internalType": "uint256",
          "name": "_ID",
          "type": "uint256"
        },
        {
          "internalType": "uint256",
          "name": "_expiry",
          "type": "uint256"
        },
        {
          "internalType": "uint256",
          "name": "_betChoices",
          "type": "uint256"
        },
        {
          "internalType": "address payable",
          "name": "_wagerOwner",
          "type": "address"
        }
      ],
      "stateMutability": "nonpayable",
      "type": "constructor"
    },
    {
      "anonymous": false,
      "inputs": [
        {
          "indexed": false,
          "internalType": "string",
          "name": "message",
          "type": "string"
        }
      ],
      "name": "CheckGameResult",
      "type": "event"
    },
    {
      "inputs": [],
      "name": "ID",
      "outputs": [
        {
          "internalType": "uint256",
          "name": "",
          "type": "uint256"
        }
      ],
      "stateMutability": "view",
      "type": "function"
    },
    {
      "inputs": [],
      "name": "betChoices",
      "outputs": [
        {
          "internalType": "uint256",
          "name": "",
          "type": "uint256"
        }
      ],
      "stateMutability": "view",
      "type": "function"
    },
    {
      "inputs": [
        {
          "internalType": "uint256",
          "name": "_ID",
          "type": "uint256"
        }
      ],
      "name": "checkGameResult",
      "outputs": [
        {
          "internalType": "string",
          "name": "",
          "type": "string"
        }
      ],
      "stateMutability": "nonpayable",
      "type": "function"
    },
    {
      "inputs": [],
      "name": "expiry",
      "outputs": [
        {
          "internalType": "uint256",
          "name": "",
          "type": "uint256"
        }
      ],
      "stateMutability": "view",
      "type": "function"
    },
    {
      "inputs": [],
      "name": "gameID",
      "outputs": [
        {
          "internalType": "uint256",
          "name": "",
          "type": "uint256"
        }
      ],
      "stateMutability": "view",
      "type": "function"
    },
    {
      "inputs": [],
      "name": "gameResult",
      "outputs": [
        {
          "internalType": "string",
          "name": "",
          "type": "string"
        }
      ],
      "stateMutability": "view",
      "type": "function"
    },
    {
      "inputs": [
        {
          "internalType": "enum Wager.Stage",
          "name": "_stage",
          "type": "uint8"
        },
        {
          "internalType": "uint256",
          "name": "_index",
          "type": "uint256"
        }
      ],
      "name": "getBet",
      "outputs": [
        {
          "components": [
            {
              "internalType": "address payable",
              "name": "bettor",
              "type": "address"
            },
            {
              "internalType": "uint256",
              "name": "prediction",
              "type": "uint256"
            },
            {
              "internalType": "uint256",
              "name": "amount",
              "type": "uint256"
            },
            {
              "internalType": "enum Wager.Stage",
              "name": "phase",
              "type": "uint8"
            }
          ],
          "internalType": "struct Wager.Bet",
          "name": "",
          "type": "tuple"
        }
      ],
      "stateMutability": "view",
      "type": "function"
    },
    {
      "inputs": [],
      "name": "getContractID",
      "outputs": [
        {
          "internalType": "uint256",
          "name": "",
          "type": "uint256"
        }
      ],
      "stateMutability": "view",
      "type": "function"
    },
    {
      "inputs": [],
      "name": "getWagerStage",
      "outputs": [
        {
          "internalType": "enum Wager.Stage",
          "name": "",
          "type": "uint8"
        }
      ],
      "stateMutability": "view",
      "type": "function"
    },
    {
      "inputs": [],
      "name": "hasWagerEnded",
      "outputs": [
        {
          "internalType": "bool",
          "name": "",
          "type": "bool"
        }
      ],
      "stateMutability": "view",
      "type": "function"
    },
    {
      "inputs": [
        {
          "internalType": "enum Wager.Stage",
          "name": "",
          "type": "uint8"
        },
        {
          "internalType": "uint256",
          "name": "",
          "type": "uint256"
        }
      ],
      "name": "phaseBets",
      "outputs": [
        {
          "internalType": "address payable",
          "name": "bettor",
          "type": "address"
        },
        {
          "internalType": "uint256",
          "name": "prediction",
          "type": "uint256"
        },
        {
          "internalType": "uint256",
          "name": "amount",
          "type": "uint256"
        },
        {
          "internalType": "enum Wager.Stage",
          "name": "phase",
          "type": "uint8"
        }
      ],
      "stateMutability": "view",
      "type": "function"
    },
    {
      "inputs": [
        {
          "internalType": "uint256",
          "name": "_prediction",
          "type": "uint256"
        }
      ],
      "name": "placeBet",
      "outputs": [],
      "stateMutability": "payable",
      "type": "function"
    },
    {
      "inputs": [],
      "name": "totalWagerTime",
      "outputs": [
        {
          "internalType": "uint256",
          "name": "",
          "type": "uint256"
        }
      ],
      "stateMutability": "view",
      "type": "function"
    },
    {
      "inputs": [],
      "name": "wagerOwner",
      "outputs": [
        {
          "internalType": "address payable",
          "name": "",
          "type": "address"
        }
      ],
      "stateMutability": "view",
      "type": "function"
    },
    {
      "inputs": [],
      "name": "wagerStartTime",
      "outputs": [
        {
          "internalType": "uint256",
          "name": "",
          "type": "uint256"
        }
      ],
      "stateMutability": "view",
      "type": "function"
    },
    {
      "inputs": [
        {
          "internalType": "address",
          "name": "",
          "type": "address"
        }
      ],
      "name": "winnings",
      "outputs": [
        {
          "internalType": "uint256",
          "name": "",
          "type": "uint256"
        }
      ],
      "stateMutability": "view",
      "type": "function"
    },
    {
      "inputs": [],
      "name": "withdrawWinnings",
      "outputs": [],
      "stateMutability": "nonpayable",
      "type": "function"
    }
  ],
  "bytecode": "0x60806040523480156200001157600080fd5b5060405162001f9b38038062001f9b833981810160405281019062000037919062000213565b856000806101000a81548173ffffffffffffffffffffffffffffffffffffffff021916908373ffffffffffffffffffffffffffffffffffffffff160217905550846001819055508360028190555042600381905550826004819055508160068190555080600760006101000a81548173ffffffffffffffffffffffffffffffffffffffff021916908373ffffffffffffffffffffffffffffffffffffffff1602179055506000600860146101000a81548160ff02191690836004811115620001045762000103620002af565b5b021790555042836200011791906200030d565b60058190555050505050505062000348565b600080fd5b600073ffffffffffffffffffffffffffffffffffffffff82169050919050565b60006200015b826200012e565b9050919050565b6200016d816200014e565b81146200017957600080fd5b50565b6000815190506200018d8162000162565b92915050565b6000819050919050565b620001a88162000193565b8114620001b457600080fd5b50565b600081519050620001c8816200019d565b92915050565b6000620001db826200012e565b9050919050565b620001ed81620001ce565b8114620001f957600080fd5b50565b6000815190506200020d81620001e2565b92915050565b60008060008060008060c0878903121562000233576200023262000129565b5b60006200024389828a016200017c565b96505060206200025689828a01620001b7565b95505060406200026989828a01620001b7565b94505060606200027c89828a01620001b7565b93505060806200028f89828a01620001b7565b92505060a0620002a289828a01620001fc565b9150509295509295509295565b7f4e487b7100000000000000000000000000000000000000000000000000000000600052602160045260246000fd5b7f4e487b7100000000000000000000000000000000000000000000000000000000600052601160045260246000fd5b60006200031a8262000193565b9150620003278362000193565b9250828203905081811115620003425762000341620002de565b5b92915050565b611c4380620003586000396000f3fe6080604052600436106100fe5760003560e01c80637152f80011610095578063c7dd4b4f11610064578063c7dd4b4f1461031f578063cc42e83a1461034a578063e184c9be14610361578063ea3a14991461038c578063fbeac855146103c9576100fe565b80637152f800146102735780638c9b48c11461029e578063b237c1bd146102c9578063b3cea217146102f4576100fe565b80631faec182116100d15780631faec182146101b557806325116fbf146101f25780636404cc791461021d57806369ec0bd514610248576100fe565b80630ac062411461010357806310fe7c4814610143578063120dcd311461015f57806316bff1491461018a575b600080fd5b34801561010f57600080fd5b5061012a600480360381019061012591906112ee565b610406565b60405161013a94939291906113f5565b60405180910390f35b61015d6004803603810190610158919061143a565b610480565b005b34801561016b57600080fd5b506101746106a6565b6040516101819190611467565b60405180910390f35b34801561019657600080fd5b5061019f6106bd565b6040516101ac9190611482565b60405180910390f35b3480156101c157600080fd5b506101dc60048036038101906101d791906112ee565b6106c3565b6040516101e9919061151f565b60405180910390f35b3480156101fe57600080fd5b506102076107da565b6040516102149190611482565b60405180910390f35b34801561022957600080fd5b506102326107e0565b60405161023f9190611555565b60405180910390f35b34801561025457600080fd5b5061025d6107ed565b60405161026a9190611570565b60405180910390f35b34801561027f57600080fd5b50610288610813565b604051610295919061161b565b60405180910390f35b3480156102aa57600080fd5b506102b36108a1565b6040516102c09190611482565b60405180910390f35b3480156102d557600080fd5b506102de6108ab565b6040516102eb9190611482565b60405180910390f35b34801561030057600080fd5b506103096108b1565b6040516103169190611482565b60405180910390f35b34801561032b57600080fd5b506103346108b7565b6040516103419190611482565b60405180910390f35b34801561035657600080fd5b5061035f6108bd565b005b34801561036d57600080fd5b506103766109d3565b6040516103839190611482565b60405180910390f35b34801561039857600080fd5b506103b360048036038101906103ae919061167b565b6109d9565b6040516103c09190611482565b60405180910390f35b3480156103d557600080fd5b506103f060048036038101906103eb919061143a565b6109f1565b6040516103fd919061161b565b60405180910390f35b600a602052816000526040600020818154811061042257600080fd5b9060005260206000209060040201600091509150508060000160009054906101000a900473ffffffffffffffffffffffffffffffffffffffff16908060010154908060020154908060030160009054906101000a900460ff16905084565b600181148061048f5750600281145b6104ce576040517f08c379a00000000000000000000000000000000000000000000000000000000081526004016104c59061171a565b60405180910390fd5b6104d6610c5f565b60006104e06106a6565b90506004808111156104f5576104f461137e565b5b8160048111156105085761050761137e565b5b03610548576040517f08c379a000000000000000000000000000000000000000000000000000000000815260040161053f90611786565b60405180910390fd5b600060405180608001604052803373ffffffffffffffffffffffffffffffffffffffff168152602001848152602001348152602001600860149054906101000a900460ff16600481111561059f5761059e61137e565b5b8152509050600a6000600860149054906101000a900460ff1660048111156105ca576105c961137e565b5b60048111156105dc576105db61137e565b5b815260200190815260200160002081908060018154018082558091505060019003906000526020600020906004020160009091909190915060008201518160000160006101000a81548173ffffffffffffffffffffffffffffffffffffffff021916908373ffffffffffffffffffffffffffffffffffffffff160217905550602082015181600101556040820151816002015560608201518160030160006101000a81548160ff0219169083600481111561069a5761069961137e565b5b02179055505050505050565b6000600860149054906101000a900460ff16905090565b60055481565b6106cb61123e565b600a60008460048111156106e2576106e161137e565b5b60048111156106f4576106f361137e565b5b81526020019081526020016000208281548110610714576107136117a6565b5b90600052602060002090600402016040518060800160405290816000820160009054906101000a900473ffffffffffffffffffffffffffffffffffffffff1673ffffffffffffffffffffffffffffffffffffffff1673ffffffffffffffffffffffffffffffffffffffff16815260200160018201548152602001600282015481526020016003820160009054906101000a900460ff1660048111156107bc576107bb61137e565b5b60048111156107ce576107cd61137e565b5b81525050905092915050565b60035481565b6000600454421015905090565b600760009054906101000a900473ffffffffffffffffffffffffffffffffffffffff1681565b6009805461082090611804565b80601f016020809104026020016040519081016040528092919081815260200182805461084c90611804565b80156108995780601f1061086e57610100808354040283529160200191610899565b820191906000526020600020905b81548152906001019060200180831161087c57829003601f168201915b505050505081565b6000600254905090565b60065481565b60025481565b60015481565b6000600b60003373ffffffffffffffffffffffffffffffffffffffff1673ffffffffffffffffffffffffffffffffffffffff16815260200190815260200160002054905060008111610944576040517f08c379a000000000000000000000000000000000000000000000000000000000815260040161093b906118a7565b60405180910390fd5b6000600b60003373ffffffffffffffffffffffffffffffffffffffff1673ffffffffffffffffffffffffffffffffffffffff168152602001908152602001600020819055503373ffffffffffffffffffffffffffffffffffffffff166108fc829081150290604051600060405180830381858888f193505050501580156109cf573d6000803e3d6000fd5b5050565b60045481565b600b6020528060005260406000206000915090505481565b606060008060009054906101000a900473ffffffffffffffffffffffffffffffffffffffff16905060008173ffffffffffffffffffffffffffffffffffffffff1663ed2df26d856040518263ffffffff1660e01b8152600401610a549190611482565b602060405180830381865afa158015610a71573d6000803e3d6000fd5b505050506040513d601f19601f82011682018060405250810190610a9591906118ec565b905060016002811115610aab57610aaa61137e565b5b816002811115610abe57610abd61137e565b5b03610b4157610acd6001610db1565b7f81fb8cf16a162d64a99ed61aee5820f2c7f2e02179193d0fb88e683599c12567604051610afa90611965565b60405180910390a16040518060400160405280600881526020017f5265642077696e7300000000000000000000000000000000000000000000000081525092505050610c5a565b600280811115610b5457610b5361137e565b5b816002811115610b6757610b6661137e565b5b03610bea57610b766002610db1565b7f81fb8cf16a162d64a99ed61aee5820f2c7f2e02179193d0fb88e683599c12567604051610ba3906119d1565b60405180910390a16040518060400160405280600981526020017f426c75652077696e73000000000000000000000000000000000000000000000081525092505050610c5a565b7f81fb8cf16a162d64a99ed61aee5820f2c7f2e02179193d0fb88e683599c12567604051610c1790611a3d565b60405180910390a16040518060400160405280600d81526020017f4e6f20726573756c742079657400000000000000000000000000000000000000815250925050505b919050565b600060035442610c6f9190611a8c565b905060006004600554610c829190611aef565b9050600454421115610cbe576004600860146101000a81548160ff02191690836004811115610cb457610cb361137e565b5b0217905550610dad565b80821015610cf6576000600860146101000a81548160ff02191690836004811115610cec57610ceb61137e565b5b0217905550610dac565b806002610d039190611b20565b821015610d3a576001600860146101000a81548160ff02191690836004811115610d3057610d2f61137e565b5b0217905550610dab565b806003610d479190611b20565b821015610d7e576002600860146101000a81548160ff02191690836004811115610d7457610d7361137e565b5b0217905550610daa565b6003600860146101000a81548160ff02191690836004811115610da457610da361137e565b5b02179055505b5b5b5b5050565b60004790506000600467ffffffffffffffff811115610dd357610dd2611b62565b5b604051908082528060200260200182016040528015610e015781602001602082028036833780820191505090505b5090506000600467ffffffffffffffff811115610e2157610e20611b62565b5b604051908082528060200260200182016040528015610e4f5781602001602082028036833780820191505090505b5090506000805b6004811015610f8a576000600a6000836004811115610e7857610e7761137e565b5b6004811115610e8a57610e8961137e565b5b6004811115610e9c57610e9b61137e565b5b8152602001908152602001600020905060005b8180549050811015610f4d5787828281548110610ecf57610ece6117a6565b5b90600052602060002090600402016001015403610f3a57818181548110610ef957610ef86117a6565b5b906000526020600020906004020160020154868481518110610f1e57610f1d6117a6565b5b60200260200101818151610f329190611b91565b915081815250505b8080610f4590611bc5565b915050610eaf565b50848281518110610f6157610f606117a6565b5b602002602001015183610f749190611b91565b9250508080610f8290611bc5565b915050610e56565b5060005b600481101561102a576000821115610ff55781848281518110610fb457610fb36117a6565b5b602002602001015186610fc79190611b20565b610fd19190611aef565b838281518110610fe457610fe36117a6565b5b602002602001018181525050611017565b600083828151811061100a576110096117a6565b5b6020026020010181815250505b808061102290611bc5565b915050610f8e565b5060005b6004811015611236576000600a60008360048111156110505761104f61137e565b5b60048111156110625761106161137e565b5b60048111156110745761107361137e565b5b8152602001908152602001600020905060005b818054905081101561122157878282815481106110a7576110a66117a6565b5b9060005260206000209060040201600101540361120e5760008584815181106110d3576110d26117a6565b5b6020026020010151905060008785815181106110f2576110f16117a6565b5b6020026020010151111561117257868481518110611113576111126117a6565b5b602002602001015183838154811061112e5761112d6117a6565b5b906000526020600020906004020160020154878681518110611153576111526117a6565b5b60200260200101516111659190611b20565b61116f9190611aef565b90505b80600b600085858154811061118a576111896117a6565b5b906000526020600020906004020160000160009054906101000a900473ffffffffffffffffffffffffffffffffffffffff1673ffffffffffffffffffffffffffffffffffffffff1673ffffffffffffffffffffffffffffffffffffffff16815260200190815260200160002060008282546112059190611b91565b92505081905550505b808061121990611bc5565b915050611087565b5050808061122e90611bc5565b91505061102e565b505050505050565b6040518060800160405280600073ffffffffffffffffffffffffffffffffffffffff1681526020016000815260200160008152602001600060048111156112885761128761137e565b5b81525090565b600080fd5b600581106112a057600080fd5b50565b6000813590506112b281611293565b92915050565b6000819050919050565b6112cb816112b8565b81146112d657600080fd5b50565b6000813590506112e8816112c2565b92915050565b600080604083850312156113055761130461128e565b5b6000611313858286016112a3565b9250506020611324858286016112d9565b9150509250929050565b600073ffffffffffffffffffffffffffffffffffffffff82169050919050565b60006113598261132e565b9050919050565b6113698161134e565b82525050565b611378816112b8565b82525050565b7f4e487b7100000000000000000000000000000000000000000000000000000000600052602160045260246000fd5b600581106113be576113bd61137e565b5b50565b60008190506113cf826113ad565b919050565b60006113df826113c1565b9050919050565b6113ef816113d4565b82525050565b600060808201905061140a6000830187611360565b611417602083018661136f565b611424604083018561136f565b61143160608301846113e6565b95945050505050565b6000602082840312156114505761144f61128e565b5b600061145e848285016112d9565b91505092915050565b600060208201905061147c60008301846113e6565b92915050565b6000602082019050611497600083018461136f565b92915050565b6114a68161134e565b82525050565b6114b5816112b8565b82525050565b6114c4816113d4565b82525050565b6080820160008201516114e0600085018261149d565b5060208201516114f360208501826114ac565b50604082015161150660408501826114ac565b50606082015161151960608501826114bb565b50505050565b600060808201905061153460008301846114ca565b92915050565b60008115159050919050565b61154f8161153a565b82525050565b600060208201905061156a6000830184611546565b92915050565b60006020820190506115856000830184611360565b92915050565b600081519050919050565b600082825260208201905092915050565b60005b838110156115c55780820151818401526020810190506115aa565b60008484015250505050565b6000601f19601f8301169050919050565b60006115ed8261158b565b6115f78185611596565b93506116078185602086016115a7565b611610816115d1565b840191505092915050565b6000602082019050818103600083015261163581846115e2565b905092915050565b60006116488261132e565b9050919050565b6116588161163d565b811461166357600080fd5b50565b6000813590506116758161164f565b92915050565b6000602082840312156116915761169061128e565b5b600061169f84828501611666565b91505092915050565b7f496e76616c69642070726564696374696f6e2e20557365203120666f7220526560008201527f642c203220666f7220426c756500000000000000000000000000000000000000602082015250565b6000611704602d83611596565b915061170f826116a8565b604082019050919050565b60006020820190508181036000830152611733816116f7565b9050919050565b7f57616765722068617320656e6465640000000000000000000000000000000000600082015250565b6000611770600f83611596565b915061177b8261173a565b602082019050919050565b6000602082019050818103600083015261179f81611763565b9050919050565b7f4e487b7100000000000000000000000000000000000000000000000000000000600052603260045260246000fd5b7f4e487b7100000000000000000000000000000000000000000000000000000000600052602260045260246000fd5b6000600282049050600182168061181c57607f821691505b60208210810361182f5761182e6117d5565b5b50919050565b7f4e6f2077696e6e696e677320617661696c61626c6520666f722077697468647260008201527f6177616c00000000000000000000000000000000000000000000000000000000602082015250565b6000611891602483611596565b915061189c82611835565b604082019050919050565b600060208201905081810360008301526118c081611884565b9050919050565b600381106118d457600080fd5b50565b6000815190506118e6816118c7565b92915050565b6000602082840312156119025761190161128e565b5b6000611910848285016118d7565b91505092915050565b7f5265642077696e73000000000000000000000000000000000000000000000000600082015250565b600061194f600883611596565b915061195a82611919565b602082019050919050565b6000602082019050818103600083015261197e81611942565b9050919050565b7f426c75652077696e730000000000000000000000000000000000000000000000600082015250565b60006119bb600983611596565b91506119c682611985565b602082019050919050565b600060208201905081810360008301526119ea816119ae565b9050919050565b7f4e6f20726573756c742079657400000000000000000000000000000000000000600082015250565b6000611a27600d83611596565b9150611a32826119f1565b602082019050919050565b60006020820190508181036000830152611a5681611a1a565b9050919050565b7f4e487b7100000000000000000000000000000000000000000000000000000000600052601160045260246000fd5b6000611a97826112b8565b9150611aa2836112b8565b9250828203905081811115611aba57611ab9611a5d565b5b92915050565b7f4e487b7100000000000000000000000000000000000000000000000000000000600052601260045260246000fd5b6000611afa826112b8565b9150611b05836112b8565b925082611b1557611b14611ac0565b5b828204905092915050565b6000611b2b826112b8565b9150611b36836112b8565b9250828202611b44816112b8565b91508282048414831517611b5b57611b5a611a5d565b5b5092915050565b7f4e487b7100000000000000000000000000000000000000000000000000000000600052604160045260246000fd5b6000611b9c826112b8565b9150611ba7836112b8565b9250828201905080821115611bbf57611bbe611a5d565b5b92915050565b6000611bd0826112b8565b91507fffffffffffffffffffffffffffffffffffffffffffffffffffffffffffffffff8203611c0257611c01611a5d565b5b60018201905091905056fea264697066735822122042320edaa1f5cf64c45023f0f8de7428a1aa85a17e618792453e9af58285478d64736f6c63430008120033",
  "linkReferences": {},
  "deployedLinkReferences": {}
}